:100000000C942A000C943F000C943F000C943F0089
:100010000C943F000C943F000C943F000C943F0064
:100020000C943F000C943F000C943F000C943F0054
:100030000C943F000C943F000C943F000C943F0044
:100040000C943F000C943F000C943F000C943F0034
:100050000C943F0011241FBECFE5D8E0DEBFCDBF1A
:1000600010E0A0E6B0E0E0E1FAE002C005900D92F9
:10007000A837B107D9F70E94AA010C9406050C9481
:10008000000081B38E7F81BB81B3806F81BB8FEF16
:1000900082BB08950F931F93CF93DF9350E080C0EE
:1000A00032B3E0E6F0E081E090E08C01008002C035
:1000B000000F111F0A94E2F7EC01018002C0CC0F7F
:1000C000DD1F0A94E2F7DC01028002C0AA0FBB1F09
:1000D0000A94E2F7BC01038002C0660F771F0A94FE
:1000E000E2F72C2F202B2A2B262B232B22BB22B3EB
:1000F000E52FF0E0E05AFF4F008002C0880F991F03
:100100000A94E2F78095822382BB40E045C080B329
:10011000E42FF0E0EC59FF4F6081262F90E002C001
:10012000959587956A95E2F780FD35C080B390E09C
:10013000022E02C0959587950A94E2F780FFF6CFCC
:10014000513079F028F05230A9F05330E1F023C05B
:10015000442359F1413059F1423059F14330D9F437
:100160002AC0442351F1413051F1423051F1433022
:1001700091F429C0442349F1413049F1423049F119
:10018000433049F428C0442341F1413041F1423029
:1001900041F1433041F14F5F443008F4B8CF5F5F25
:1001A000543008F47DCF8DE41FC087E31DC084E385
:1001B0001BC081E319C083E217C088E315C085E343
:1001C00013C082E311C080E30FC089E30DC086E352
:1001D0000BC083E309C08DE307C08FE205C08AE24C
:1001E00003C08DE201C08BE2DF91CF911F910F918F
:1001F00008954B3211F4860F08954D3211F4861B89
:1002000008954A3221F4869F802D112408954F329B
:1002100029F4662329F00E941002089580E00895D1
:1002200080E008958BBB88B38D7F88BB88B38B7FBC
:1002300088BB88B3886088BB82E08A95F1F700C0EC
:1002400088B3877F88BB8FE697E10197F1F700C0FD
:10025000000008958FEF87BB8ABB8FE39CE901976D
:10026000F1F700C0000088E30E9412018CE00E94B8
:10027000120186E00E94120181E00E94120108959D
:100280008BBB88B3826088BB88B38B7F88BB88B305
:10029000886088BB82E08A95F1F700C088B3877FC9
:1002A00088BB8FEC97E00197F1F700C0000008953C
:1002B0000F931F93CF93DF938C01C0E0D0E003C076
:1002C0000E9440012196F801EC0FFD1F80818111F1
:1002D000F7CFDF91CF911F910F910895813039F4BD
:1002E000603168F480E8860F0E9412010895823020
:1002F00031F4603120F480EC860F0E9412010895E1
:100300000F931F93CF93DF9300D000D000D0CDB7D1
:10031000DEB71F928F9388E690E09F938F938E01B4
:100320000F5F1F4F1F930F930E941C02C8010E9472
:1003300058010F900F900F900F900F900F902696EE
:100340000FB6F894DEBF0FBECDBFDF91CF911F91E6
:100350000F9108950E942A010E9441008BE690E0CF
:100360000E9458012FEF81EE94E021508040904090
:10037000E1F700C0000081E00E941201D0E410E02B
:1003800000E007C0DC2F05C0DC2F03C0DC2F01C05C
:10039000DC2F0E944A00C82F833219F08D34C9F334
:1003A00007C081E00E941201D0E410E000E0F1CF2C
:1003B0000E944001CD3379F460E082E00E946E013A
:1003C0004D2F612F802F0E94F9000E948001D0E400
:1003D00010E000E0DECFCB32A9F2CD32A9F2CA3272
:1003E000A9F2CF32A9F280ED8C0F8A3060F4D034BC
:1003F00051F4802F880F082F000F000F800F8C0FF3
:1004000000ED080FC6CF8A3020F6D03411F2110F5C
:10041000812F880F880F180FC10F10ED1C0FB9CF57
:10042000991B79E004C0991F961708F0961B881F46
:100430007A95C9F780950895AEE0B0E0E2E2F2E087
:100440000C94DD040D891E8986E08C831A83098350
:100450008FEF9FE79E838D83AE01475E5F4F6F896D
:10046000788DCE0101960E943E02EF81F885E00F63
:10047000F11F10822E96E4E00C94F904ABE0B0E09A
:10048000E4E4F2E00C94CF046C017B018A01FC01EE
:1004900017821682838181FFCCC1CE0101963C0177
:1004A000F6019381F70193FD859193FF81917F017F
:1004B000882309F4BAC1853239F493FD859193FFFD
:1004C00081917F01853229F4B60190E00E943504C4
:1004D000E7CF912C212C312CFFE1F315D8F08B3292
:1004E00079F038F4803279F08332A1F4232D206141
:1004F0001DC08D3261F0803369F4232D216016C058
:10050000832D8260382EE32DE4603E2E2AC0F32D29
:10051000F8601DC037FC2DC020ED280F2A3040F0B8
:100520008E32B9F436FC81C1232D2064322E19C0DD
:1005300036FE06C08AE0989E200D1124922E11C02E
:10054000EAE02E9E200D1124222EF32DF0623F2E84
:1005500008C08C3621F4832D8068382E02C088367E
:1005600041F4F70193FD859193FF81917F01811102
:10057000B3CF982F9F7D9554933028F40C5F1F4F75
:100580009FE399830DC0833631F0833771F0833553
:1005900009F059C021C0F801808189830E5F1F4F87
:1005A00088248394912C530113C02801F2E04F0E4C
:1005B000511CF801A080B18036FE03C0692D70E0A7
:1005C00002C06FEF7FEFC5010E942A044C01820137
:1005D000F32DFF773F2E16C0280122E0420E511C5A
:1005E000F801A080B18036FE03C0692D70E002C022
:1005F0006FEF7FEFC5010E941F044C01F32DF068DF
:100600003F2E820133FC1BC0822D90E08816990694
:10061000B0F4B60180E290E00E9435042A94F4CF51
:10062000F50137FC859137FE81915F01B60190E0BD
:100630000E94350421102A9421E0821A9108811425
:10064000910471F7E8C0843611F0893641F5F8015C
:1006500037FE07C060817181828193810C5F1F4FDB
:1006600008C060817181072E000C880B990B0E5F0A
:100670001F4FF32DFF763F2E97FF09C09095809571
:10068000709561957F4F8F4F9F4FF0683F2E2AE006
:1006900030E0A3010E947104882E861845C085377A
:1006A00031F4232D2F7EB22E2AE030E025C0932D89
:1006B000997FB92E8F36C1F018F4883579F0B5C01E
:1006C000803719F0883721F0B0C0E92FE061BE2EE5
:1006D000B4FE0DC0FB2DF460BF2E09C034FE0AC06D
:1006E000292F2660B22E06C028E030E005C020E1A8
:1006F00030E002C020E132E0F801B7FE07C06081BF
:100700007181828193810C5F1F4F06C0608171816E
:1007100080E090E00E5F1F4FA3010E947104882EBD
:100720008618FB2DFF773F2E36FE0DC0232D2E7F22
:10073000A22E891458F434FE0BC032FC09C0832D5C
:100740008E7EA82E05C0B82CA32C03C0B82C01C0E7
:10075000B92CA4FE0FC0FE01E80DF11D808180338D
:1007600021F49A2D997EA92E09C0A2FE06C0B39449
:10077000B39404C08A2D867809F0B394A3FC11C009
:10078000A0FE06C0B21488F4280C922C9B180EC050
:10079000B21460F4B60180E290E00E943504B39494
:1007A000F7CFB21418F42B1802C0982C212CA4FEF9
:1007B00010C0B60180E390E00E943504A2FE17C08D
:1007C000A1FC03C088E790E002C088E590E0B60194
:1007D0000CC08A2D867859F0A1FE02C08BE201C0C0
:1007E00080E2A7FC8DE2B60190E00E9435048914F6
:1007F00038F4B60180E390E00E9435049A94F7CF74
:100800008A94F301E80DF11D8081B60190E00E9409
:1008100035048110F5CF222009F442CEB60180E2E2
:1008200090E00E9435042A94F6CFF60186819781E4
:1008300002C08FEF9FEF2B96E2E10C94EB04FC01DA
:100840000590615070400110D8F7809590958E0FFB
:100850009F1F0895FC016150704001900110D8F76E
:10086000809590958E0F9F1F08950F931F93CF93A0
:10087000DF93FB01238121FD03C08FEF9FEF2CC08D
:1008800022FF16C0468157812481358142175307C4
:1008900044F4A081B1819D012F5F3F4F31832083BC
:1008A0008C93268137812F5F3F4F3783268314C077
:1008B0008B01EC01FB010084F185E02D0995892B6A
:1008C000E1F6D80116968D919C911797019617968F
:1008D0009C938E931697CE01DF91CF911F910F912C
:1008E0000895FA01AA27283051F1203181F1E894C6
:1008F0006F936E7F6E5F7F4F8F4F9F4FAF4FB1E013
:100900003ED0B4E03CD0670F781F891F9A1FA11D0D
:10091000680F791F8A1F911DA11D6A0F711D811D0E
:10092000911DA11D20D009F468943F912AE0269FD3
:1009300011243019305D3193DEF6CF010895462F32
:100940004770405D4193B3E00FD0C9F7F6CF462F13
:100950004F70405D4A3318F0495D31FD405241937C
:1009600002D0A9F7EACFB4E0A69597958795779539
:100970006795BA95C9F700976105710508959B01C0
:10098000AC010A2E06945795479537952795BA9549
:10099000C9F7620F731F841F951FA01D08952F9222
:1009A0003F924F925F926F927F928F929F92AF92FF
:1009B000BF92CF92DF92EF92FF920F931F93CF934C
:1009C000DF93CDB7DEB7CA1BDB0B0FB6F894DEBFE3
:1009D0000FBECDBF09942A88398848885F846E8409
:1009E0007D848C849B84AA84B984C884DF80EE8053
:1009F000FD800C811B81AA81B981CE0FD11D0FB65C
:100A0000F894DEBF0FBECDBFED010895F894FFCF7F
:100A1000040506070001020325640063616C637529
:080A20006C61746F72203A0052
:00000001FF
